{
  "_format": "hh-sol-artifact-1",
  "contractName": "Certificate",
  "sourceName": "contracts/Certificate.sol",
  "abi": [
    {
      "inputs": [],
      "stateMutability": "nonpayable",
      "type": "constructor"
    },
    {
      "inputs": [
        {
          "internalType": "address",
          "name": "sender",
          "type": "address"
        },
        {
          "internalType": "uint256",
          "name": "tokenId",
          "type": "uint256"
        },
        {
          "internalType": "address",
          "name": "owner",
          "type": "address"
        }
      ],
      "name": "ERC721IncorrectOwner",
      "type": "error"
    },
    {
      "inputs": [
        {
          "internalType": "address",
          "name": "operator",
          "type": "address"
        },
        {
          "internalType": "uint256",
          "name": "tokenId",
          "type": "uint256"
        }
      ],
      "name": "ERC721InsufficientApproval",
      "type": "error"
    },
    {
      "inputs": [
        {
          "internalType": "address",
          "name": "approver",
          "type": "address"
        }
      ],
      "name": "ERC721InvalidApprover",
      "type": "error"
    },
    {
      "inputs": [
        {
          "internalType": "address",
          "name": "operator",
          "type": "address"
        }
      ],
      "name": "ERC721InvalidOperator",
      "type": "error"
    },
    {
      "inputs": [
        {
          "internalType": "address",
          "name": "owner",
          "type": "address"
        }
      ],
      "name": "ERC721InvalidOwner",
      "type": "error"
    },
    {
      "inputs": [
        {
          "internalType": "address",
          "name": "receiver",
          "type": "address"
        }
      ],
      "name": "ERC721InvalidReceiver",
      "type": "error"
    },
    {
      "inputs": [
        {
          "internalType": "address",
          "name": "sender",
          "type": "address"
        }
      ],
      "name": "ERC721InvalidSender",
      "type": "error"
    },
    {
      "inputs": [
        {
          "internalType": "uint256",
          "name": "tokenId",
          "type": "uint256"
        }
      ],
      "name": "ERC721NonexistentToken",
      "type": "error"
    },
    {
      "inputs": [
        {
          "internalType": "address",
          "name": "owner",
          "type": "address"
        }
      ],
      "name": "OwnableInvalidOwner",
      "type": "error"
    },
    {
      "inputs": [
        {
          "internalType": "address",
          "name": "account",
          "type": "address"
        }
      ],
      "name": "OwnableUnauthorizedAccount",
      "type": "error"
    },
    {
      "anonymous": false,
      "inputs": [
        {
          "indexed": true,
          "internalType": "address",
          "name": "owner",
          "type": "address"
        },
        {
          "indexed": true,
          "internalType": "address",
          "name": "approved",
          "type": "address"
        },
        {
          "indexed": true,
          "internalType": "uint256",
          "name": "tokenId",
          "type": "uint256"
        }
      ],
      "name": "Approval",
      "type": "event"
    },
    {
      "anonymous": false,
      "inputs": [
        {
          "indexed": true,
          "internalType": "address",
          "name": "owner",
          "type": "address"
        },
        {
          "indexed": true,
          "internalType": "address",
          "name": "operator",
          "type": "address"
        },
        {
          "indexed": false,
          "internalType": "bool",
          "name": "approved",
          "type": "bool"
        }
      ],
      "name": "ApprovalForAll",
      "type": "event"
    },
    {
      "anonymous": false,
      "inputs": [
        {
          "indexed": false,
          "internalType": "uint256",
          "name": "_fromTokenId",
          "type": "uint256"
        },
        {
          "indexed": false,
          "internalType": "uint256",
          "name": "_toTokenId",
          "type": "uint256"
        }
      ],
      "name": "BatchMetadataUpdate",
      "type": "event"
    },
    {
      "anonymous": false,
      "inputs": [
        {
          "indexed": false,
          "internalType": "uint256",
          "name": "_tokenId",
          "type": "uint256"
        }
      ],
      "name": "MetadataUpdate",
      "type": "event"
    },
    {
      "anonymous": false,
      "inputs": [
        {
          "indexed": true,
          "internalType": "address",
          "name": "previousOwner",
          "type": "address"
        },
        {
          "indexed": true,
          "internalType": "address",
          "name": "newOwner",
          "type": "address"
        }
      ],
      "name": "OwnershipTransferred",
      "type": "event"
    },
    {
      "anonymous": false,
      "inputs": [
        {
          "indexed": true,
          "internalType": "address",
          "name": "from",
          "type": "address"
        },
        {
          "indexed": true,
          "internalType": "address",
          "name": "to",
          "type": "address"
        },
        {
          "indexed": true,
          "internalType": "uint256",
          "name": "tokenId",
          "type": "uint256"
        }
      ],
      "name": "Transfer",
      "type": "event"
    },
    {
      "inputs": [
        {
          "internalType": "address",
          "name": "to",
          "type": "address"
        },
        {
          "internalType": "uint256",
          "name": "tokenId",
          "type": "uint256"
        }
      ],
      "name": "approve",
      "outputs": [],
      "stateMutability": "nonpayable",
      "type": "function"
    },
    {
      "inputs": [
        {
          "internalType": "address",
          "name": "owner",
          "type": "address"
        }
      ],
      "name": "balanceOf",
      "outputs": [
        {
          "internalType": "uint256",
          "name": "",
          "type": "uint256"
        }
      ],
      "stateMutability": "view",
      "type": "function"
    },
    {
      "inputs": [
        {
          "internalType": "uint256",
          "name": "tokenId",
          "type": "uint256"
        }
      ],
      "name": "burn",
      "outputs": [],
      "stateMutability": "nonpayable",
      "type": "function"
    },
    {
      "inputs": [
        {
          "internalType": "uint256",
          "name": "tokenId",
          "type": "uint256"
        }
      ],
      "name": "getApproved",
      "outputs": [
        {
          "internalType": "address",
          "name": "",
          "type": "address"
        }
      ],
      "stateMutability": "view",
      "type": "function"
    },
    {
      "inputs": [
        {
          "internalType": "address",
          "name": "owner",
          "type": "address"
        },
        {
          "internalType": "address",
          "name": "operator",
          "type": "address"
        }
      ],
      "name": "isApprovedForAll",
      "outputs": [
        {
          "internalType": "bool",
          "name": "",
          "type": "bool"
        }
      ],
      "stateMutability": "view",
      "type": "function"
    },
    {
      "inputs": [],
      "name": "name",
      "outputs": [
        {
          "internalType": "string",
          "name": "",
          "type": "string"
        }
      ],
      "stateMutability": "view",
      "type": "function"
    },
    {
      "inputs": [],
      "name": "owner",
      "outputs": [
        {
          "internalType": "address",
          "name": "",
          "type": "address"
        }
      ],
      "stateMutability": "view",
      "type": "function"
    },
    {
      "inputs": [
        {
          "internalType": "uint256",
          "name": "tokenId",
          "type": "uint256"
        }
      ],
      "name": "ownerOf",
      "outputs": [
        {
          "internalType": "address",
          "name": "",
          "type": "address"
        }
      ],
      "stateMutability": "view",
      "type": "function"
    },
    {
      "inputs": [],
      "name": "renounceOwnership",
      "outputs": [],
      "stateMutability": "nonpayable",
      "type": "function"
    },
    {
      "inputs": [
        {
          "internalType": "address",
          "name": "to",
          "type": "address"
        },
        {
          "internalType": "string",
          "name": "uri",
          "type": "string"
        }
      ],
      "name": "safeMint",
      "outputs": [],
      "stateMutability": "nonpayable",
      "type": "function"
    },
    {
      "inputs": [
        {
          "internalType": "address",
          "name": "from",
          "type": "address"
        },
        {
          "internalType": "address",
          "name": "to",
          "type": "address"
        },
        {
          "internalType": "uint256",
          "name": "tokenId",
          "type": "uint256"
        }
      ],
      "name": "safeTransferFrom",
      "outputs": [],
      "stateMutability": "nonpayable",
      "type": "function"
    },
    {
      "inputs": [
        {
          "internalType": "address",
          "name": "from",
          "type": "address"
        },
        {
          "internalType": "address",
          "name": "to",
          "type": "address"
        },
        {
          "internalType": "uint256",
          "name": "tokenId",
          "type": "uint256"
        },
        {
          "internalType": "bytes",
          "name": "data",
          "type": "bytes"
        }
      ],
      "name": "safeTransferFrom",
      "outputs": [],
      "stateMutability": "nonpayable",
      "type": "function"
    },
    {
      "inputs": [
        {
          "internalType": "address",
          "name": "operator",
          "type": "address"
        },
        {
          "internalType": "bool",
          "name": "approved",
          "type": "bool"
        }
      ],
      "name": "setApprovalForAll",
      "outputs": [],
      "stateMutability": "nonpayable",
      "type": "function"
    },
    {
      "inputs": [
        {
          "internalType": "bytes4",
          "name": "interfaceId",
          "type": "bytes4"
        }
      ],
      "name": "supportsInterface",
      "outputs": [
        {
          "internalType": "bool",
          "name": "",
          "type": "bool"
        }
      ],
      "stateMutability": "view",
      "type": "function"
    },
    {
      "inputs": [],
      "name": "symbol",
      "outputs": [
        {
          "internalType": "string",
          "name": "",
          "type": "string"
        }
      ],
      "stateMutability": "view",
      "type": "function"
    },
    {
      "inputs": [
        {
          "internalType": "uint256",
          "name": "tokenId",
          "type": "uint256"
        }
      ],
      "name": "tokenURI",
      "outputs": [
        {
          "internalType": "string",
          "name": "",
          "type": "string"
        }
      ],
      "stateMutability": "view",
      "type": "function"
    },
    {
      "inputs": [
        {
          "internalType": "address",
          "name": "from",
          "type": "address"
        },
        {
          "internalType": "address",
          "name": "to",
          "type": "address"
        },
        {
          "internalType": "uint256",
          "name": "tokenId",
          "type": "uint256"
        }
      ],
      "name": "transferFrom",
      "outputs": [],
      "stateMutability": "nonpayable",
      "type": "function"
    },
    {
      "inputs": [
        {
          "internalType": "address",
          "name": "newOwner",
          "type": "address"
        }
      ],
      "name": "transferOwnership",
      "outputs": [],
      "stateMutability": "nonpayable",
      "type": "function"
    }
  ],
  "bytecode": "0x60806040523480156200001157600080fd5b50336040518060400160405280600b81526020017f43657274696669636174650000000000000000000000000000000000000000008152506040518060400160405280600381526020017f4d544b00000000000000000000000000000000000000000000000000000000008152508160009081620000909190620005ad565b508060019081620000a29190620005ad565b505050600073ffffffffffffffffffffffffffffffffffffffff168173ffffffffffffffffffffffffffffffffffffffff16036200011a5760006040517f1e4fbdf7000000000000000000000000000000000000000000000000000000008152600401620001119190620006d9565b60405180910390fd5b6200012b816200015d60201b60201c565b50620001576040518060600160405280602681526020016200322760269139336200022360201b60201c565b620007e8565b6000600760009054906101000a900473ffffffffffffffffffffffffffffffffffffffff16905081600760006101000a81548173ffffffffffffffffffffffffffffffffffffffff021916908373ffffffffffffffffffffffffffffffffffffffff1602179055508173ffffffffffffffffffffffffffffffffffffffff168173ffffffffffffffffffffffffffffffffffffffff167f8be0079c531659141344cd1fd0a4f28419497f9722a3daafe3b4186f6b6457e060405160405180910390a35050565b620002c582826040516024016200023c92919062000785565b6040516020818303038152906040527f319af333000000000000000000000000000000000000000000000000000000007bffffffffffffffffffffffffffffffffffffffffffffffffffffffff19166020820180517bffffffffffffffffffffffffffffffffffffffffffffffffffffffff8381831617835250505050620002c960201b60201c565b5050565b620002ef81620002ea620002f260201b62000981176200031360201b60201c565b60201c565b50565b60006a636f6e736f6c652e6c6f679050600080835160208501845afa505050565b6200032760201b62001d7b17819050919050565b62000331620007b9565b565b600081519050919050565b7f4e487b7100000000000000000000000000000000000000000000000000000000600052604160045260246000fd5b7f4e487b7100000000000000000000000000000000000000000000000000000000600052602260045260246000fd5b60006002820490506001821680620003b557607f821691505b602082108103620003cb57620003ca6200036d565b5b50919050565b60008190508160005260206000209050919050565b60006020601f8301049050919050565b600082821b905092915050565b600060088302620004357fffffffffffffffffffffffffffffffffffffffffffffffffffffffffffffffff82620003f6565b620004418683620003f6565b95508019841693508086168417925050509392505050565b6000819050919050565b6000819050919050565b60006200048e62000488620004828462000459565b62000463565b62000459565b9050919050565b6000819050919050565b620004aa836200046d565b620004c2620004b98262000495565b84845462000403565b825550505050565b600090565b620004d9620004ca565b620004e68184846200049f565b505050565b5b818110156200050e5762000502600082620004cf565b600181019050620004ec565b5050565b601f8211156200055d576200052781620003d1565b6200053284620003e6565b8101602085101562000542578190505b6200055a6200055185620003e6565b830182620004eb565b50505b505050565b600082821c905092915050565b6000620005826000198460080262000562565b1980831691505092915050565b60006200059d83836200056f565b9150826002028217905092915050565b620005b88262000333565b67ffffffffffffffff811115620005d457620005d36200033e565b5b620005e082546200039c565b620005ed82828562000512565b600060209050601f83116001811462000625576000841562000610578287015190505b6200061c85826200058f565b8655506200068c565b601f1984166200063586620003d1565b60005b828110156200065f5784890151825560018201915060208501945060208101905062000638565b868310156200067f57848901516200067b601f8916826200056f565b8355505b6001600288020188555050505b505050505050565b600073ffffffffffffffffffffffffffffffffffffffff82169050919050565b6000620006c18262000694565b9050919050565b620006d381620006b4565b82525050565b6000602082019050620006f06000830184620006c8565b92915050565b600082825260208201905092915050565b60005b83811015620007275780820151818401526020810190506200070a565b60008484015250505050565b6000601f19601f8301169050919050565b6000620007518262000333565b6200075d8185620006f6565b93506200076f81856020860162000707565b6200077a8162000733565b840191505092915050565b60006040820190508181036000830152620007a1818562000744565b9050620007b26020830184620006c8565b9392505050565b7f4e487b7100000000000000000000000000000000000000000000000000000000600052605160045260246000fd5b612a2f80620007f86000396000f3fe608060405234801561001057600080fd5b50600436106101165760003560e01c8063715018a6116100a2578063b88d4fde11610071578063b88d4fde146102cb578063c87b56dd146102e7578063d204c45e14610317578063e985e9c514610333578063f2fde38b1461036357610116565b8063715018a6146102695780638da5cb5b1461027357806395d89b4114610291578063a22cb465146102af57610116565b806323b872dd116100e957806323b872dd146101b557806342842e0e146101d157806342966c68146101ed5780636352211e1461020957806370a082311461023957610116565b806301ffc9a71461011b57806306fdde031461014b578063081812fc14610169578063095ea7b314610199575b600080fd5b61013560048036038101906101309190611df1565b61037f565b6040516101429190611e39565b60405180910390f35b610153610391565b6040516101609190611ee4565b60405180910390f35b610183600480360381019061017e9190611f3c565b610423565b6040516101909190611faa565b60405180910390f35b6101b360048036038101906101ae9190611ff1565b61043f565b005b6101cf60048036038101906101ca9190612031565b610455565b005b6101eb60048036038101906101e69190612031565b610557565b005b61020760048036038101906102029190611f3c565b610577565b005b610223600480360381019061021e9190611f3c565b61058e565b6040516102309190611faa565b60405180910390f35b610253600480360381019061024e9190612084565b6105a0565b60405161026091906120c0565b60405180910390f35b61027161065a565b005b61027b61066e565b6040516102889190611faa565b60405180910390f35b610299610698565b6040516102a69190611ee4565b60405180910390f35b6102c960048036038101906102c49190612107565b61072a565b005b6102e560048036038101906102e0919061227c565b610740565b005b61030160048036038101906102fc9190611f3c565b61075d565b60405161030e9190611ee4565b60405180910390f35b610331600480360381019061032c91906123a0565b61076f565b005b61034d600480360381019061034891906123fc565b610867565b60405161035a9190611e39565b60405180910390f35b61037d60048036038101906103789190612084565b6108fb565b005b600061038a826109a2565b9050919050565b6060600080546103a09061246b565b80601f01602080910402602001604051908101604052809291908181526020018280546103cc9061246b565b80156104195780601f106103ee57610100808354040283529160200191610419565b820191906000526020600020905b8154815290600101906020018083116103fc57829003601f168201915b5050505050905090565b600061042e82610a03565b5061043882610a8b565b9050919050565b610451828261044c610ac8565b610ad0565b5050565b600073ffffffffffffffffffffffffffffffffffffffff168273ffffffffffffffffffffffffffffffffffffffff16036104c75760006040517f64a0ae920000000000000000000000000000000000000000000000000000000081526004016104be9190611faa565b60405180910390fd5b60006104db83836104d6610ac8565b610ae2565b90508373ffffffffffffffffffffffffffffffffffffffff168173ffffffffffffffffffffffffffffffffffffffff1614610551578382826040517f64283d7b0000000000000000000000000000000000000000000000000000000081526004016105489392919061249c565b60405180910390fd5b50505050565b61057283838360405180602001604052806000815250610740565b505050565b61058a600082610585610ac8565b610ae2565b5050565b600061059982610a03565b9050919050565b60008073ffffffffffffffffffffffffffffffffffffffff168273ffffffffffffffffffffffffffffffffffffffff16036106135760006040517f89c62b6400000000000000000000000000000000000000000000000000000000815260040161060a9190611faa565b60405180910390fd5b600360008373ffffffffffffffffffffffffffffffffffffffff1673ffffffffffffffffffffffffffffffffffffffff168152602001908152602001600020549050919050565b610662610cfc565b61066c6000610d83565b565b6000600760009054906101000a900473ffffffffffffffffffffffffffffffffffffffff16905090565b6060600180546106a79061246b565b80601f01602080910402602001604051908101604052809291908181526020018280546106d39061246b565b80156107205780601f106106f557610100808354040283529160200191610720565b820191906000526020600020905b81548152906001019060200180831161070357829003601f168201915b5050505050905090565b61073c610735610ac8565b8383610e49565b5050565b61074b848484610455565b61075784848484610fb8565b50505050565b60606107688261116f565b9050919050565b610777610cfc565b60006008600081548092919061078c90612502565b91905055905061079c8382611282565b6107a681836112a0565b6107e46040518060400160405280600e81526020017f736166654d696e742043616c6c3a0000000000000000000000000000000000008152506112fc565b6108236040518060400160405280600781526020017f0920746f202d200000000000000000000000000000000000000000000000000081525084611395565b6108626040518060400160405280600881526020017f0920757269202d2000000000000000000000000000000000000000000000000081525083611431565b505050565b6000600560008473ffffffffffffffffffffffffffffffffffffffff1673ffffffffffffffffffffffffffffffffffffffff16815260200190815260200160002060008373ffffffffffffffffffffffffffffffffffffffff1673ffffffffffffffffffffffffffffffffffffffff16815260200190815260200160002060009054906101000a900460ff16905092915050565b610903610cfc565b600073ffffffffffffffffffffffffffffffffffffffff168173ffffffffffffffffffffffffffffffffffffffff16036109755760006040517f1e4fbdf700000000000000000000000000000000000000000000000000000000815260040161096c9190611faa565b60405180910390fd5b61097e81610d83565b50565b60006a636f6e736f6c652e6c6f679050600080835160208501845afa505050565b6000634906490660e01b7bffffffffffffffffffffffffffffffffffffffffffffffffffffffff1916827bffffffffffffffffffffffffffffffffffffffffffffffffffffffff191614806109fc57506109fb826114cd565b5b9050919050565b600080610a0f836115af565b9050600073ffffffffffffffffffffffffffffffffffffffff168173ffffffffffffffffffffffffffffffffffffffff1603610a8257826040517f7e273289000000000000000000000000000000000000000000000000000000008152600401610a7991906120c0565b60405180910390fd5b80915050919050565b60006004600083815260200190815260200160002060009054906101000a900473ffffffffffffffffffffffffffffffffffffffff169050919050565b600033905090565b610add83838360016115ec565b505050565b600080610aee846115af565b9050600073ffffffffffffffffffffffffffffffffffffffff168373ffffffffffffffffffffffffffffffffffffffff1614610b3057610b2f8184866117b1565b5b600073ffffffffffffffffffffffffffffffffffffffff168173ffffffffffffffffffffffffffffffffffffffff1614610bc157610b726000856000806115ec565b6001600360008373ffffffffffffffffffffffffffffffffffffffff1673ffffffffffffffffffffffffffffffffffffffff168152602001908152602001600020600082825403925050819055505b600073ffffffffffffffffffffffffffffffffffffffff168573ffffffffffffffffffffffffffffffffffffffff1614610c44576001600360008773ffffffffffffffffffffffffffffffffffffffff1673ffffffffffffffffffffffffffffffffffffffff168152602001908152602001600020600082825401925050819055505b846002600086815260200190815260200160002060006101000a81548173ffffffffffffffffffffffffffffffffffffffff021916908373ffffffffffffffffffffffffffffffffffffffff160217905550838573ffffffffffffffffffffffffffffffffffffffff168273ffffffffffffffffffffffffffffffffffffffff167fddf252ad1be2c89b69c2b068fc378daa952ba7f163c4a11628f55a4df523b3ef60405160405180910390a4809150509392505050565b610d04610ac8565b73ffffffffffffffffffffffffffffffffffffffff16610d2261066e565b73ffffffffffffffffffffffffffffffffffffffff1614610d8157610d45610ac8565b6040517f118cdaa7000000000000000000000000000000000000000000000000000000008152600401610d789190611faa565b60405180910390fd5b565b6000600760009054906101000a900473ffffffffffffffffffffffffffffffffffffffff16905081600760006101000a81548173ffffffffffffffffffffffffffffffffffffffff021916908373ffffffffffffffffffffffffffffffffffffffff1602179055508173ffffffffffffffffffffffffffffffffffffffff168173ffffffffffffffffffffffffffffffffffffffff167f8be0079c531659141344cd1fd0a4f28419497f9722a3daafe3b4186f6b6457e060405160405180910390a35050565b600073ffffffffffffffffffffffffffffffffffffffff168273ffffffffffffffffffffffffffffffffffffffff1603610eba57816040517f5b08ba18000000000000000000000000000000000000000000000000000000008152600401610eb19190611faa565b60405180910390fd5b80600560008573ffffffffffffffffffffffffffffffffffffffff1673ffffffffffffffffffffffffffffffffffffffff16815260200190815260200160002060008473ffffffffffffffffffffffffffffffffffffffff1673ffffffffffffffffffffffffffffffffffffffff16815260200190815260200160002060006101000a81548160ff0219169083151502179055508173ffffffffffffffffffffffffffffffffffffffff168373ffffffffffffffffffffffffffffffffffffffff167f17307eab39ab6107e8899845ad3d59bd9653f200f220920489ca2b5937696c3183604051610fab9190611e39565b60405180910390a3505050565b60008373ffffffffffffffffffffffffffffffffffffffff163b1115611169578273ffffffffffffffffffffffffffffffffffffffff1663150b7a02610ffc610ac8565b8685856040518563ffffffff1660e01b815260040161101e949392919061259f565b6020604051808303816000875af192505050801561105a57506040513d601f19601f820116820180604052508101906110579190612600565b60015b6110de573d806000811461108a576040519150601f19603f3d011682016040523d82523d6000602084013e61108f565b606091505b5060008151036110d657836040517f64a0ae920000000000000000000000000000000000000000000000000000000081526004016110cd9190611faa565b60405180910390fd5b805181602001fd5b63150b7a0260e01b7bffffffffffffffffffffffffffffffffffffffffffffffffffffffff1916817bffffffffffffffffffffffffffffffffffffffffffffffffffffffff19161461116757836040517f64a0ae9200000000000000000000000000000000000000000000000000000000815260040161115e9190611faa565b60405180910390fd5b505b50505050565b606061117a82610a03565b50600060066000848152602001908152602001600020805461119b9061246b565b80601f01602080910402602001604051908101604052809291908181526020018280546111c79061246b565b80156112145780601f106111e957610100808354040283529160200191611214565b820191906000526020600020905b8154815290600101906020018083116111f757829003601f168201915b505050505090506000611225611875565b9050600081510361123a57819250505061127d565b60008251111561126f578082604051602001611257929190612669565b6040516020818303038152906040529250505061127d565b6112788461188c565b925050505b919050565b61129c8282604051806020016040528060008152506118f5565b5050565b806006600084815260200190815260200160002090816112c09190612839565b507ff8e1a15aba9398e019f0b49df1a4fde98ee17ae345cb5f6b5e2c27f5033e8ce7826040516112f091906120c0565b60405180910390a15050565b611392816040516024016113109190611ee4565b6040516020818303038152906040527f41304fac000000000000000000000000000000000000000000000000000000007bffffffffffffffffffffffffffffffffffffffffffffffffffffffff19166020820180517bffffffffffffffffffffffffffffffffffffffffffffffffffffffff8381831617835250505050611911565b50565b61142d82826040516024016113ab92919061290b565b6040516020818303038152906040527f319af333000000000000000000000000000000000000000000000000000000007bffffffffffffffffffffffffffffffffffffffffffffffffffffffff19166020820180517bffffffffffffffffffffffffffffffffffffffffffffffffffffffff8381831617835250505050611911565b5050565b6114c9828260405160240161144792919061293b565b6040516020818303038152906040527f4b5c4277000000000000000000000000000000000000000000000000000000007bffffffffffffffffffffffffffffffffffffffffffffffffffffffff19166020820180517bffffffffffffffffffffffffffffffffffffffffffffffffffffffff8381831617835250505050611911565b5050565b60007f80ac58cd000000000000000000000000000000000000000000000000000000007bffffffffffffffffffffffffffffffffffffffffffffffffffffffff1916827bffffffffffffffffffffffffffffffffffffffffffffffffffffffff1916148061159857507f5b5e139f000000000000000000000000000000000000000000000000000000007bffffffffffffffffffffffffffffffffffffffffffffffffffffffff1916827bffffffffffffffffffffffffffffffffffffffffffffffffffffffff1916145b806115a857506115a78261192b565b5b9050919050565b60006002600083815260200190815260200160002060009054906101000a900473ffffffffffffffffffffffffffffffffffffffff169050919050565b80806116255750600073ffffffffffffffffffffffffffffffffffffffff168273ffffffffffffffffffffffffffffffffffffffff1614155b1561175957600061163584610a03565b9050600073ffffffffffffffffffffffffffffffffffffffff168373ffffffffffffffffffffffffffffffffffffffff16141580156116a057508273ffffffffffffffffffffffffffffffffffffffff168173ffffffffffffffffffffffffffffffffffffffff1614155b80156116b357506116b18184610867565b155b156116f557826040517fa9fbf51f0000000000000000000000000000000000000000000000000000000081526004016116ec9190611faa565b60405180910390fd5b811561175757838573ffffffffffffffffffffffffffffffffffffffff168273ffffffffffffffffffffffffffffffffffffffff167f8c5be1e5ebec7d5bd14f71427d1e84f3dd0314c0f7b2291e5b200ac8c7c3b92560405160405180910390a45b505b836004600085815260200190815260200160002060006101000a81548173ffffffffffffffffffffffffffffffffffffffff021916908373ffffffffffffffffffffffffffffffffffffffff16021790555050505050565b6117bc838383611995565b61187057600073ffffffffffffffffffffffffffffffffffffffff168373ffffffffffffffffffffffffffffffffffffffff160361183157806040517f7e27328900000000000000000000000000000000000000000000000000000000815260040161182891906120c0565b60405180910390fd5b81816040517f177e802f000000000000000000000000000000000000000000000000000000008152600401611867929190612972565b60405180910390fd5b505050565b606060405180602001604052806000815250905090565b606061189782610a03565b5060006118a2611875565b905060008151116118c257604051806020016040528060008152506118ed565b806118cc84611a56565b6040516020016118dd929190612669565b6040516020818303038152906040525b915050919050565b6118ff8383611b24565b61190c6000848484610fb8565b505050565b61192881611920610981611c1d565b63ffffffff16565b50565b60007f01ffc9a7000000000000000000000000000000000000000000000000000000007bffffffffffffffffffffffffffffffffffffffffffffffffffffffff1916827bffffffffffffffffffffffffffffffffffffffffffffffffffffffff1916149050919050565b60008073ffffffffffffffffffffffffffffffffffffffff168373ffffffffffffffffffffffffffffffffffffffff1614158015611a4d57508273ffffffffffffffffffffffffffffffffffffffff168473ffffffffffffffffffffffffffffffffffffffff161480611a0e5750611a0d8484610867565b5b80611a4c57508273ffffffffffffffffffffffffffffffffffffffff16611a3483610a8b565b73ffffffffffffffffffffffffffffffffffffffff16145b5b90509392505050565b606060006001611a6584611c28565b01905060008167ffffffffffffffff811115611a8457611a83612151565b5b6040519080825280601f01601f191660200182016040528015611ab65781602001600182028036833780820191505090505b509050600082602001820190505b600115611b19578080600190039150507f3031323334353637383961626364656600000000000000000000000000000000600a86061a8153600a8581611b0d57611b0c61299b565b5b04945060008503611ac4575b819350505050919050565b600073ffffffffffffffffffffffffffffffffffffffff168273ffffffffffffffffffffffffffffffffffffffff1603611b965760006040517f64a0ae92000000000000000000000000000000000000000000000000000000008152600401611b8d9190611faa565b60405180910390fd5b6000611ba483836000610ae2565b9050600073ffffffffffffffffffffffffffffffffffffffff168173ffffffffffffffffffffffffffffffffffffffff1614611c185760006040517f73c6ac6e000000000000000000000000000000000000000000000000000000008152600401611c0f9190611faa565b60405180910390fd5b505050565b611d7b819050919050565b600080600090507a184f03e93ff9f4daa797ed6e38ed64bf6a1f0100000000000000008310611c86577a184f03e93ff9f4daa797ed6e38ed64bf6a1f0100000000000000008381611c7c57611c7b61299b565b5b0492506040810190505b6d04ee2d6d415b85acef81000000008310611cc3576d04ee2d6d415b85acef81000000008381611cb957611cb861299b565b5b0492506020810190505b662386f26fc100008310611cf257662386f26fc100008381611ce857611ce761299b565b5b0492506010810190505b6305f5e1008310611d1b576305f5e1008381611d1157611d1061299b565b5b0492506008810190505b6127108310611d40576127108381611d3657611d3561299b565b5b0492506004810190505b60648310611d635760648381611d5957611d5861299b565b5b0492506002810190505b600a8310611d72576001810190505b80915050919050565b611d836129ca565b565b6000604051905090565b600080fd5b600080fd5b60007fffffffff0000000000000000000000000000000000000000000000000000000082169050919050565b611dce81611d99565b8114611dd957600080fd5b50565b600081359050611deb81611dc5565b92915050565b600060208284031215611e0757611e06611d8f565b5b6000611e1584828501611ddc565b91505092915050565b60008115159050919050565b611e3381611e1e565b82525050565b6000602082019050611e4e6000830184611e2a565b92915050565b600081519050919050565b600082825260208201905092915050565b60005b83811015611e8e578082015181840152602081019050611e73565b60008484015250505050565b6000601f19601f8301169050919050565b6000611eb682611e54565b611ec08185611e5f565b9350611ed0818560208601611e70565b611ed981611e9a565b840191505092915050565b60006020820190508181036000830152611efe8184611eab565b905092915050565b6000819050919050565b611f1981611f06565b8114611f2457600080fd5b50565b600081359050611f3681611f10565b92915050565b600060208284031215611f5257611f51611d8f565b5b6000611f6084828501611f27565b91505092915050565b600073ffffffffffffffffffffffffffffffffffffffff82169050919050565b6000611f9482611f69565b9050919050565b611fa481611f89565b82525050565b6000602082019050611fbf6000830184611f9b565b92915050565b611fce81611f89565b8114611fd957600080fd5b50565b600081359050611feb81611fc5565b92915050565b6000806040838503121561200857612007611d8f565b5b600061201685828601611fdc565b925050602061202785828601611f27565b9150509250929050565b60008060006060848603121561204a57612049611d8f565b5b600061205886828701611fdc565b935050602061206986828701611fdc565b925050604061207a86828701611f27565b9150509250925092565b60006020828403121561209a57612099611d8f565b5b60006120a884828501611fdc565b91505092915050565b6120ba81611f06565b82525050565b60006020820190506120d560008301846120b1565b92915050565b6120e481611e1e565b81146120ef57600080fd5b50565b600081359050612101816120db565b92915050565b6000806040838503121561211e5761211d611d8f565b5b600061212c85828601611fdc565b925050602061213d858286016120f2565b9150509250929050565b600080fd5b600080fd5b7f4e487b7100000000000000000000000000000000000000000000000000000000600052604160045260246000fd5b61218982611e9a565b810181811067ffffffffffffffff821117156121a8576121a7612151565b5b80604052505050565b60006121bb611d85565b90506121c78282612180565b919050565b600067ffffffffffffffff8211156121e7576121e6612151565b5b6121f082611e9a565b9050602081019050919050565b82818337600083830152505050565b600061221f61221a846121cc565b6121b1565b90508281526020810184848401111561223b5761223a61214c565b5b6122468482856121fd565b509392505050565b600082601f83011261226357612262612147565b5b813561227384826020860161220c565b91505092915050565b6000806000806080858703121561229657612295611d8f565b5b60006122a487828801611fdc565b94505060206122b587828801611fdc565b93505060406122c687828801611f27565b925050606085013567ffffffffffffffff8111156122e7576122e6611d94565b5b6122f38782880161224e565b91505092959194509250565b600067ffffffffffffffff82111561231a57612319612151565b5b61232382611e9a565b9050602081019050919050565b600061234361233e846122ff565b6121b1565b90508281526020810184848401111561235f5761235e61214c565b5b61236a8482856121fd565b509392505050565b600082601f83011261238757612386612147565b5b8135612397848260208601612330565b91505092915050565b600080604083850312156123b7576123b6611d8f565b5b60006123c585828601611fdc565b925050602083013567ffffffffffffffff8111156123e6576123e5611d94565b5b6123f285828601612372565b9150509250929050565b6000806040838503121561241357612412611d8f565b5b600061242185828601611fdc565b925050602061243285828601611fdc565b9150509250929050565b7f4e487b7100000000000000000000000000000000000000000000000000000000600052602260045260246000fd5b6000600282049050600182168061248357607f821691505b6020821081036124965761249561243c565b5b50919050565b60006060820190506124b16000830186611f9b565b6124be60208301856120b1565b6124cb6040830184611f9b565b949350505050565b7f4e487b7100000000000000000000000000000000000000000000000000000000600052601160045260246000fd5b600061250d82611f06565b91507fffffffffffffffffffffffffffffffffffffffffffffffffffffffffffffffff820361253f5761253e6124d3565b5b600182019050919050565b600081519050919050565b600082825260208201905092915050565b60006125718261254a565b61257b8185612555565b935061258b818560208601611e70565b61259481611e9a565b840191505092915050565b60006080820190506125b46000830187611f9b565b6125c16020830186611f9b565b6125ce60408301856120b1565b81810360608301526125e08184612566565b905095945050505050565b6000815190506125fa81611dc5565b92915050565b60006020828403121561261657612615611d8f565b5b6000612624848285016125eb565b91505092915050565b600081905092915050565b600061264382611e54565b61264d818561262d565b935061265d818560208601611e70565b80840191505092915050565b60006126758285612638565b91506126818284612638565b91508190509392505050565b60008190508160005260206000209050919050565b60006020601f8301049050919050565b600082821b905092915050565b6000600883026126ef7fffffffffffffffffffffffffffffffffffffffffffffffffffffffffffffffff826126b2565b6126f986836126b2565b95508019841693508086168417925050509392505050565b6000819050919050565b600061273661273161272c84611f06565b612711565b611f06565b9050919050565b6000819050919050565b6127508361271b565b61276461275c8261273d565b8484546126bf565b825550505050565b600090565b61277961276c565b612784818484612747565b505050565b5b818110156127a85761279d600082612771565b60018101905061278a565b5050565b601f8211156127ed576127be8161268d565b6127c7846126a2565b810160208510156127d6578190505b6127ea6127e2856126a2565b830182612789565b50505b505050565b600082821c905092915050565b6000612810600019846008026127f2565b1980831691505092915050565b600061282983836127ff565b9150826002028217905092915050565b61284282611e54565b67ffffffffffffffff81111561285b5761285a612151565b5b612865825461246b565b6128708282856127ac565b600060209050601f8311600181146128a35760008415612891578287015190505b61289b858261281d565b865550612903565b601f1984166128b18661268d565b60005b828110156128d9578489015182556001820191506020850194506020810190506128b4565b868310156128f657848901516128f2601f8916826127ff565b8355505b6001600288020188555050505b505050505050565b600060408201905081810360008301526129258185611eab565b90506129346020830184611f9b565b9392505050565b600060408201905081810360008301526129558185611eab565b905081810360208301526129698184611eab565b90509392505050565b60006040820190506129876000830185611f9b565b61299460208301846120b1565b9392505050565b7f4e487b7100000000000000000000000000000000000000000000000000000000600052601260045260246000fd5b7f4e487b7100000000000000000000000000000000000000000000000000000000600052605160045260246000fdfea264697066735822122080162c730eede053cd190ada6df5598c03861d28ff211c1f70d74ad4a50a590964736f6c63430008180033496e697469616c697a652043657274696669636174652e20696e697469616c4f776e65723a20",
  "linkReferences": {},
  "deployedLinkReferences": {}
}